:020000020000FC
:0200000011C02D
:0400160044C078C0AA
:1000220039C00FEF0DBF04E00EBF0FEF0AB978948D
:100032000AE00093810002E000936F0000E104B93E
:1000420001EC0CBD08E0009389000FEF00938800DB
:1000520001EA00938B000FEF00938A00B1E00FE7F3
:100062000D930D930D930D930D930D930D930C938F
:10007200A0E00FEF0BB930FD01D0FDCF3E7F31FD87
:1000820003C0412F32600895F894A42F1C937894F2
:100092003D7F08951EB51F3F21F23160189500E0A3
:1000A2000093890008E0009388002F3F19F10D9119
:1000B200021301C058980D91021301C059980D9175
:1000C200021301C05A980D91021301C05B980D9161
:1000D200021301C05C980D91021301C05D980D914D
:1000E200021301C05E980C91021301C05F98A0E058
:1000F2002395189523950FEF0093890000938800AC
:1001020004E000936F00189500E0009385000093CF
:10011200840002E000936F0008E0009389000FEF73
:0A012200009388000FEF0BB9189549
:00000001FF
